:020000040800F2
:10000000000800205D0B0008C10A0008C70A0008AC
:1000100000000000000000000000000000000000E0
:10002000000000000000000000000000CD0A0008F1
:100030000000000000000000D70A0008E10A0008E4
:10004000DD0B0008DD0B0008DD0B0008DD0B0008F0
:10005000DD0B0008DD0B0008DD0B0008DD0B0008E0
:1000600000000000DD0B0008DD0B0008DD0B0008C0
:10007000DD0B0008DD0B000800000000F10A00089D
:100080000000000000000000000000000000000070
:10009000090B00080000000000000000210B000810
:1000A00000000000DD0B0008000000000000000060
:1000B000DD0B0008DD0B0008000000000000000060
:1000C00010B5064C2378002B07D1054B002B02D02E
:1000D000044800E000BF0123237010BD0C00002085
:1000E00000000000943A0008044B10B5002B03D028
:1000F0000349044800E000BF10BDC04600000000F6
:1001000010000020943A0008002243088B4274D368
:1001100003098B425FD3030A8B4244D3030B8B4208
:1001200028D3030C8B420DD3FF22090212BA030C11
:100130008B4202D31212090265D0030B8B4219D3F2
:1001400000E0090AC30B8B4201D3CB03C01A524112
:10015000830B8B4201D38B03C01A5241430B8B425A
:1001600001D34B03C01A5241030B8B4201D30B0343
:10017000C01A5241C30A8B4201D3CB02C01A52416A
:10018000830A8B4201D38B02C01A5241430A8B422D
:1001900001D34B02C01A5241030A8B4201D30B0216
:1001A000C01A5241CDD2C3098B4201D3CB01C01A30
:1001B000524183098B4201D38B01C01A524143093A
:1001C0008B4201D34B01C01A524103098B4201D328
:1001D0000B01C01A5241C3088B4201D3CB00C01A95
:1001E000524183088B4201D38B00C01A524143080D
:1001F0008B4201D34B00C01A5241411A00D2014632
:10020000524110467047FFE701B5002000F006F8A4
:1002100002BDC0460029F7D076E770477047C04658
:10022000002B11D1002A0FD1002900D1002802D0C3
:100230000021C943081C07B4024802A140180290DB
:1002400003BDC046D9FFFFFF03B4684601B502985D
:1002500000F02EF8019B9E4602B00CBC7047C046D1
:10026000F0B515042D0C0F0001002E00C646844683
:100270000004140C000C090C46434D4360436143D9
:100280004019340C241800B5A54203D9802040023F
:1002900080464144250C6D18614659437A43300429
:1002A00049192404000C2018891880BCB846F0BDF8
:1002B000F0B557464E464546DE46E0B504000D0013
:1002C0009246994683B08B4230D82DD0494650464D
:1002D00000F0D8F829000600200000F0D3F8331A07
:1002E0009846203B9B4633D45A4653469340424659
:1002F0001F00534693401E00AF423AD8AF4200D190
:1003000078E05B46A41BBD41002B00DA75E00022BB
:1003100000230092019301235A4693400193012345
:1003200042469340009328E08242CFD90022002326
:10033000009201930C9B002B01D01C605D60009823
:10034000019903B0F0BCBB46B246A946A046F0BD39
:10035000424620239B1A5246DA40414613004A4641
:100360008A40170042461F43534693401E00AF4247
:10037000C4D900220023009201934346002BD9D018
:10038000FB0772081A4346467B080EE0AB4201D1D8
:10039000A2420CD8A41A9D41012024196D410021CC
:1003A000013E24184D41002E06D0AB42EED9013E4D
:1003B00024196D41002EF8D1009801995B4600196F
:1003C0006941002B24DB2B005A464446D3402A00C7
:1003D000E2401C005B461500002B2ADB26009E40F5
:1003E000330026004746BE403200801A99410090F3
:1003F00001919FE7A342BCD883E742462023002116
:100400009B1A0022009101920122DA40019286E7B4
:10041000424620239B1A2A0046469A402300F34076
:10042000444613432A00E2401C005B461500002BA3
:10043000D4DA42462F002023260097409B1ADE4044
:100440003B003343CDE7C0461C2101231B049842E7
:1004500001D3000C10391B0A984201D3000A083955
:100460001B09984201D30009043902A2105C40180C
:100470007047C046040302020101010100000000B0
:100480000000000010B5002903D1FFF7DDFF203088
:1004900002E0081CFFF7D8FF10BDC04690B583B03E
:1004A00000AF00F09DFB00F035F800F0A3F900F07C
:1004B000DDF800F09BF800F047F9A023DB050122EE
:1004C0002021180000F0D5FEFA235B00180000F090
:1004D000F7FBA023DB0500222021180000F0C9FE55
:1004E000C82000F0EDFBFC1D084B4021180000F077
:1004F000A3FE03002370FB1D1B78012BDDD1044BF1
:100500000021180002F010FDD7E7C046000400509B
:100510007400002090B599B000AF2C243B1918004E
:1005200034231A00002103F0ADFA1823FB18180039
:1005300014231A00002103F0A5FA3B001800182329
:100540001A00002103F09EFA264B1B68264A1A4027
:10055000244B802109010A431A6021007B181022D4
:100560001A607B1801229A617B180022DA617B18DD
:10057000A02212021A627B1800225A627B1818000D
:1005800001F0C2FD031E01D000F0A4F918217B1870
:100590000F221A607B1800225A607B1800229A6092
:1005A0007B180022DA607B1800221A617B18002178
:1005B000180002F025F9031E01D000F08BF93B0072
:1005C00008221A603B0000221A613B00180002F06A
:1005D00005FB031E01D000F07DF9C046BD4619B0F1
:1005E00090BDC04600700040FFE7FFFF80B500AF40
:1005F0001C4B1D4A1A601B4BE122D2005A60194B5A
:1006000000229A60174B0122DA60164B00221A6111
:10061000144B00225A61134B00229A61114B0022A5
:10062000DA61104B00221A620E4B180000F03EFEF9
:10063000031E01D000F04EF90A4B0021180001F012
:10064000CBFC031E01D000F045F9064B0021180039
:1006500001F00EFD031E01D000F03CF9C046BD467E
:1006600080BDC046280000200054004080B586B000
:1006700000AF1023FB18180008231A00002103F014
:1006800001FA3B00180010231A00002103F0FAF9C8
:100690002B4B8022D2051A60294B2A4A5A60284BDC
:1006A00000229A60264B6322DA60254B00221A61F1
:1006B000234B00225A61224B180002F0F5FB031E67
:1006C00001D000F007F910217B1800221A607B1876
:1006D00000225A607A181A4B1100180003F05EF9D4
:1006E000031E01D000F0F6F83B0060221A603B00C8
:1006F00014225A603B0000229A603B000022DA601C
:1007000039000F4B0422180002F07AFD031E01D0BD
:1007100000F0E0F83B0000225A603900084B082244
:10072000180002F06DFD031E01D000F0D3F8044B59
:10073000180000F073F9C046BD4606B080BDC04643
:1007400074000020E703000080B586B000AF0823E6
:10075000FB18180010231A00002103F093F93B0046
:10076000180008231A00002103F08CF91E4B1F4AC1
:100770001A601D4B1E4A5A601B4B00229A601A4B8E
:100780006322DA60184B00221A61174B00225A616B
:10079000154B180002F048FB031E01D000F09AF838
:1007A00008217B18802252011A607A180E4B110022
:1007B000180002F0EBFD031E01D000F08BF83B00A7
:1007C00000221A603B0000225A603A00064B1100DA
:1007D000180003F0E3F8031E01D000F07BF8C046D8
:1007E000BD4606B080BDC046B400002000080140F0
:1007F0000F27000090B589B000AF0C243B191800FA
:1008000014231A00002103F03DF9304BDA6A2F4B14
:1008100001210A43DA622D4BDB6A01221340BB60DF
:10082000BB682A4BDA6A294B02210A43DA62274B5A
:10083000DB6A022213407B607B68A023DB05002279
:100840002021180000F015FD214B00224021180046
:1008500000F00FFD3B1920221A603B1901225A605B
:100860003B1900229A603B190022DA603A19A02352
:10087000DB051100180000F079FB21007B18202215
:100880001A607B18882252035A607B1800229A60F3
:100890000C007B180E4A1900100000F067FB2100C5
:1008A0007B1840221A607B1801225A607B180022B4
:1008B0009A607B180022DA607B18054A1900100044
:1008C00000F054FBC046BD4609B090BD0010024088
:1008D0000004005080B500AF72B6C046FEE70000CD
:1008E00080B500AF074B5A6B064B01210A435A6390
:1008F000044B9A6B034B802149050A439A63C04617
:10090000BD4680BD0010024090B589B000AF786050
:100910000C243B19180014231A00002103F0B2F82C
:100920007B681B681C4A934232D11C4BDA6A1B4B12
:1009300001210A43DA62194BDB6A01221340BB60D2
:10094000BB683B19C022D2001A6021007B1812221A
:100950005A607B1800229A607B180322DA607B18A9
:1009600001221A617A18A023DB051100180000F09B
:10097000FDFA0A4B9A6B094B802189030A439A635B
:1009800000220021172000F06BFA172000F07DFAFA
:10099000C046BD4609B090BD005400400010024062
:1009A00080B582B000AF78607B681A688023DB0571
:1009B0009A420DD1084B9A6B074B01210A439A6367
:1009C000002200210F2000F04BFA0F2000F05DFA0A
:1009D000C046BD4602B080BD0010024080B582B066
:1009E00000AF78607B681B680A4A93420DD10A4BBE
:1009F0005A6B094B04210A435A6300220021142038
:100A000000F02EFA142000F040FAC046BD4602B0B5
:100A100080BDC046000801400010024090B589B07A
:100A200000AF78600C243B19180014231A00002131
:100A300003F028F87B681A688023DB059A4236D1D8
:100A40001D4BDA6A1C4B02210A43DA621A4BDB6A3D
:100A500002221340BB60BB683B1901221A603B199C
:100A600002225A603B1900229A603B190022DA6088
:100A70003B1905221A613B19104A1900100000F0B9
:100A800075FA21007B1808221A607B1802225A602E
:100A90007B1800229A607B180022DA607B18022201
:100AA0001A617B18054A1900100000F05FFAC04671
:100AB000BD4609B090BDC046001002400004005081
:100AC00080B500AFFEE780B500AFFEE780B500AFB0
:100AD000C046BD4680BD80B500AFC046BD4680BDA6
:100AE00080B500AF00F0D0F8C046BD4680BD000024
:100AF00080B500AF034B180002F09AFAC046BD461D
:100B000080BDC0467400002080B500AF034B1800C4
:100B100002F08EFAC046BD4680BDC046B40000203B
:100B200080B500AF094B1B689A69E023DB001340D6
:100B300004D0064B180000F069FC03E0034B1800DA
:100B400000F04AFCC046BD4680BDC04628000020DB
:100B500080B500AFC046BD4680BD00001348854645
:100B600013480168090E134A914205D112481349EE
:100B7000016013481349016013481449144A0023C3
:100B800002E0D458C4500433C4188C42F9D3114A3B
:100B9000114C002301E013600432A242FBD3FFF7A3
:100BA000D7FF02F04BFFFFF779FCFEE700080020BB
:100BB000040000001F00000034100240010000008B
:100BC0000000014000000000000000200C00002098
:100BD000D83A00080C000020F8000020FEE70000D2
:100BE00080B582B000AFFB1D00221A700B4B1A6853
:100BF0000A4B40210A431A60032000F011F8031E3B
:100C000003D0FB1D01221A7001E0FFF769FEFB1DF6
:100C10001B781800BD4602B080BDC04600200240CF
:100C200090B583B000AF7860144B1C68144B1B78F0
:100C30001900FA239800FFF767FA03001900200053
:100C4000FFF762FA0300180000F02FF9031E01D02D
:100C500001230FE07B68032B0BD8796801235B42EB
:100C60000022180000F0FCF8064B7A681A60002396
:100C700000E001231800BD4603B090BD0000002035
:100C8000080000200400002080B500AF054B1B7851
:100C90001A00054B1B68D218034B1A60C046BD46AC
:100CA00080BDC04608000020F400002080B500AFE1
:100CB000024B1B681800BD4680BDC046F4000020F2
:100CC00080B584B000AF7860FFF7F0FF0300BB6031
:100CD0007B68FB60FB68013305D00A4B1B781A0068
:100CE000FB689B18FB60C046FFF7E0FF0200BB6893
:100CF000D31AFA689A42F7D8C046C046BD4604B037
:100D000080BDC0460800002080B582B000AF020060
:100D1000FB1D1A70FB1D1B787F2B09D8FB1D1B7850
:100D20001A001F231A40044B012191400A001A6047
:100D3000C046BD4602B080BD00E100E090B583B082
:100D400000AF02003960FB1D1A70FB1D1B787F2B62
:100D500028D82F4AFB1D1B785BB29B08C0339B0031
:100D60009B58FA1D1278110003220A40D200FF217D
:100D700091400A00D2431A4011003B689B01FF22B8
:100D80001A40FB1D1B78180003230340DB009A4028
:100D90001F48FB1D1B785BB29B080A43C0339B00B6
:100DA0001A5031E01B4AFB1D1B7819000F230B4022
:100DB000083B9B0806339B00D31804331B68FA1DBD
:100DC0001278110003220A40D200FF2191400A004C
:100DD000D2431A4011003B689B01FF221A40FB1DC1
:100DE0001B78180003230340DB009A400948FB1DD1
:100DF0001B781C000F232340083B9B080A43063343
:100E00009B00C31804331A60C046BD4603B090BDB2
:100E100000E100E000ED00E080B582B000AF786056
:100E20007B685A1E80235B049A4201D3012310E0A1
:100E30000A4B7A68013A5A6001235B420321180089
:100E4000FFF77CFF054B00229A60044B07221A60D3
:100E500000231800BD4602B080BDC04610E000E08F
:100E600080B584B000AFB9607A600F217B18021C96
:100E70001A70BA687B181B785BB211001800FFF774
:100E80005DFFC046BD4604B080BD80B582B000AFF6
:100E90000200FB1D1A70FB1D1B785BB21800FFF7E8
:100EA00033FFC046BD4602B080BD80B582B000AF02
:100EB00078607B681800FFF7AFFF03001800BD469D
:100EC00002B080BD80B584B000AF78600F217B1880
:100ED00000221A707B6825229B5CDBB2022B06D0B5
:100EE0007B680422DA637B1801221A702AE07B688F
:100EF0001B681A687B681B680E218A431A607B682E
:100F00001B681A687B681B6801218A431A607B682A
:100F10005B6C1C221A407B681B6C012191400A000B
:100F20005A607B682522012199547B682422002184
:100F300099547B689B6B002B04D07B689B6B7A6811
:100F4000100098470F23FB181B781800BD4604B00B
:100F500080BD80B582B000AF78607B6825229B5C45
:100F6000DBB21800BD4602B080BD000080B586B07F
:100F700000AF7860396000237B610023FB600023B1
:100F80003B6143E13B681B6801217A6991400A009B
:100F90001340FB60FB68002B00D134E13B685B68C9
:100FA00003221340012B05D03B685B6803221340EA
:100FB000022B30D17B689B683B617B695B0003221D
:100FC0009A401300DA433B6913403B613B68DA689F
:100FD0007B695B009A4013003A6913433B617B686D
:100FE0003A699A607B685B683B6101227B699A4041
:100FF0001300DA433B6913403B613B685B681B09A4
:1010000001221A407B699A4013003A6913433B61FD
:101010007B683A695A603B685B6803221340032B84
:1010200017D07B68DB683B617B695B0003229A40D9
:101030001300DA433B6913403B613B689A687B6964
:101040005B009A4013003A6913433B617B683A693D
:10105000DA603B685B6803221340022B23D17B6973
:10106000DA087B6808329200D3583B617B6907221B
:1010700013409B000F229A401300DA433B69134050
:101080003B613B681A697B6907210B409B009A40D2
:1010900013003A6913433B617B69DA087B680832C5
:1010A00092003969D1507B681B683B617B695B00AA
:1010B00003229A401300DA433B6913403B613B68CB
:1010C0005B6803221A407B695B009A4013003A690F
:1010D00013433B617B683A691A603B685A68C023D6
:1010E0009B02134000D18EE04E4B5A6B4D4B0121B9
:1010F0000A435A634C4A7B699B0802339B009B5806
:101100003B617B69032213409B000F229A4013002E
:10111000DA433B6913403B617A68A023DB059A42BE
:101120000DD07B68414A934207D07B68404A934286
:1011300001D1022304E0062302E0012300E00023A2
:101140007A6903210A40920093403A6913433B6154
:1011500035497B699B0802339B003A695A50354BED
:101160001B683B61FB68DA433B6913403B613B68AA
:101170005A6880235B02134003D03A69FB6813432B
:101180003B612C4B3A691A602A4B5B683B61FB68F8
:10119000DA433B6913403B613B685A6880239B02FA
:1011A000134003D03A69FB6813433B61214B3A6912
:1011B0005A60204B9B683B61FB68DA433B691340F4
:1011C0003B613B685A6880235B03134003D03A6954
:1011D000FB6813433B61174B3A699A60154BDB6818
:1011E0003B61FB68DA433B6913403B613B685A68EB
:1011F00080239B03134003D03A69FB6813433B6190
:101200000C4B3A69DA607B6901337B613B681A6891
:101210007B69DA40131E00D0B4E6C046C046BD4626
:1012200006B080BD001002400000014000040050E4
:10123000000800500004014080B584B000AF786021
:101240000A00BB1C1A807B681B69BA1C12881340F9
:1012500004D00F23FB1801221A7003E00F23FB18A0
:1012600000221A700F23FB181B781800BD4604B02B
:1012700080BD80B582B000AF786008001100BB1C53
:10128000021C1A807B1C0A1C1A707B1C1B78002B0A
:1012900004D0BB1C1A887B689A6103E0BB1C1A88C7
:1012A0007B689A62C046BD4602B080BD80B582B000
:1012B00000AF78607B68002B01D1012382E07B685E
:1012C00041229B5CDBB2002B07D17B6840220021CE
:1012D00099547B681800FFF717FB7B684122242193
:1012E00099547B681B681A687B681B6801218A43D4
:1012F0001A607B685A687B681B6834490A401A6127
:101300007B681B689A687B681B6831490A409A6051
:101310007B68DB68012B08D17B689A687B681B6857
:10132000802109020A439A6007E07B689A687B681B
:101330001B68842109020A439A607B68DB68022BE0
:1013400004D17B681B68802212015A607B681B688D
:101350005A687B681B681F490A435A607B681B6890
:10136000DA687B681B681A490A40DA607B681A6988
:101370007B685B691A4311007B689B691A027B6872
:101380001B680A43DA607B68D9697B681A6A7B68E4
:101390001B680A431A607B681B681A687B681B68B5
:1013A00001210A431A607B6800225A647B6841224B
:1013B000202199547B6800221A637B684222002115
:1013C000995400231800BD4602B080BDFFFFFFF016
:1013D000FF7FFFFF0080000280B584B000AF78601F
:1013E0007B681B689B69FB607B681B681B68BB6034
:1013F0007B685B6B002B05D07B685B6BBA68F96818
:1014000078689847C046BD4604B080BD80B586B0B8
:1014100000AF78607B681B689B697B617B681B6899
:101420001B683B617B691B0A1A000123134010D023
:101430003B69DB091A00012313400AD07B685B6C0F
:1014400001221A437B685A647B681B688022520021
:10145000DA617B699B0A1A000123134010D03B69B3
:10146000DB091A00012313400AD07B685B6C082259
:101470001A437B685A647B681B688022D200DA6159
:101480007B695B0A1A000123134010D03B69DB091A
:101490001A00012313400AD07B685B6C02221A43B6
:1014A0007B685A647B681B6880229200DA617B68E3
:1014B0005B6CFB60FB680B22134005D0FA687B680D
:1014C0001100180000F0D8FBC046BD4606B080BD34
:1014D00080B582B000AF7860C046BD4602B080BD26
:1014E00080B582B000AF7860C046BD4602B080BD16
:1014F00080B582B000AF786008001100FB1C021CB0
:101500001A703B000A1C1A80C046BD4602B080BD5E
:1015100080B582B000AF7860C046BD4602B080BDE5
:1015200080B582B000AF7860C046BD4602B080BDD5
:1015300080B582B000AF7860C046BD4602B080BDC5
:1015400080B586B000AFF860B9607A60FB68DB6A8E
:101550007B61BB683B61FB6840229B5C012B01D136
:101560000223FAE0FB684022012199543B695B09A0
:101570001A00012313400BD07B685B091A0001237A
:10158000134005D03A69FB681100180000F0F6F925
:101590003B691B091A000123134054D07B681B09C7
:1015A0001A00012313404ED0FB685B8D9BB2002BC9
:1015B0002DD1FB6841229B5CDBB2282B0BD17A69D1
:1015C00080239B049A4206D13A69FB6811001800F7
:1015D00000F0F8FA36E0FB6841229B5CDBB2292B75
:1015E00010D17B695F4A93420CD0FB681B681022C4
:1015F000DA61FB68180000F04AFCFB68180000F094
:1016000057F91FE0FB681B681022DA619DE0FB6858
:101610001B681022DA61FB685B6C04221A43FB68CA
:101620005A647B69002B05D07A6980235B049A4257
:1016300000D08AE0FB685A6CFB681100180000F0CB
:101640001BFB82E081E03B699B081A0001231340E9
:1016500031D07B689B081A00012313402BD0FB6814
:101660005B8D9BB2002B18D0FB681B685A6AFB6825
:101670005B6AD2B21A70FB685B6A5A1CFB685A62DA
:10168000FB681B8D013B9AB2FB681A85FB685B8D7A
:101690009BB2013B9AB2FB685A85FB685B8D9BB29B
:1016A000002B54D17B692F4A934250D0FB6818001D
:1016B00000F0FEF84BE03B69DB081A000123134001
:1016C0000CD07B68DB081A000123134006D03A696E
:1016D000FB681100180000F047F839E03B695B082F
:1016E0001A000123134033D07B685B081A000123E2
:1016F00013402DD0FB685B8D9BB2002B18D0FB688C
:101700005B6A1A78FB681B689A62FB685B6A5A1C02
:10171000FB685A62FB685B8D9BB2013B9AB2FB6827
:101720005A85FB681B8D013B9AB2FB681A850FE056
:101730007A6980235B049A4202D07B69002B07D12F
:10174000FB68180000F0B4F802E0C04600E0C046B4
:10175000FB6840220021995400231800BD4606B0C2
:1017600080BDC0460000FFFFB0B584B000AF786018
:1017700039607B6841229B5CDBB21A00282313404E
:10178000282B00D088E07B681B689B691B0CDAB2B1
:101790000F257B1901210A401A707B681B689B6921
:1017A0001B0C9AB20C203B18FE210A401A807B6861
:1017B0001B689B689AB20A243B199205920D1A8005
:1017C0007B681B68DB689AB20823FB18FE210A407D
:1017D0001A807B68DB68022B48D121007B181B88AC
:1017E000DB099AB23B181B8853409BB21A000623B0
:1017F000134020D13B187A1812881A807B689B6CA2
:101800005A1C7B689A647B689B6C022B4CD17B686A
:1018100000229A647B681B680822DA617B68402298
:10182000002199543B181A887B1919787B68180095
:10183000FFF75EFE38E00C243B190822BA18128824
:101840001A8080231A027B681100180000F060FBE8
:101850007B684022002199543B191A880F23FB18FA
:1018600019787B681800FFF743FE1DE080231A02F9
:101870007B681100180000F04BFB7B6840220021C0
:1018800099540C23FB181A880F23FB1819787B68CE
:101890001800FFF72DFE07E07B681B680822DA615D
:1018A0007B68402200219954C046BD4604B0B0BDBB
:1018B00080B584B000AF78607B681B681B68FB60F4
:1018C0007B68422200219954FB689B0B1A0001237C
:1018D000134008D07B681B681A687B681B68254921
:1018E0000A401A600DE0FB68DB0B1A00012313406D
:1018F00007D07B681B681A687B681B681E490A4012
:101900001A607B6841229B5CDBB2292B14D17B6877
:101910004122282199547B6821221A637B68012186
:10192000180000F0F5FA7B684022002199547B688A
:101930001800FFF7CDFD19E07B6841229B5CDBB20C
:101940002A2B13D17B684122282199547B682222BB
:101950001A637B680221180000F0DAFA7B684022E3
:10196000002199547B681800FFF7BAFDC046BD46B8
:1019700004B080BDFFBFFFFFFF7FFFFF80B586B0D3
:1019800000AF786039607B681B681B683B613B680F
:101990007B610F203B187A684121525C1A707B688A
:1019A0001B682022DA613B181B78212B03D03B18DF
:1019B0001B78292B09D17D4A7B681100180000F0A3
:1019C000A7FA7B6821221A6311E00F22BB181B784B
:1019D000222B03D0BB181B782A2B08D1744A7B68B2
:1019E0001100180000F094FA7B6822221A637B68C9
:1019F0001B685A687B681B68802109020A435A6089
:101A00007B681B685A687B681B686A490A405A6091
:101A10007B68180000F03BFA3B699B0B1A0001231E
:101A2000134013D07B681B681A687B681B68624987
:101A30000A401A607B689B6B002B20D07B689B6BF5
:101A40001B685B689AB27B685A8518E03B69DB0BC0
:101A50001A000123134012D07B681B681A687B6848
:101A60001B6856490A401A607B68DB6B002B06D066
:101A70007B68DB6B1B685B689AB27B685A857B6905
:101A80009B081A000123134020D07B690422934352
:101A90007B617B681B685A6A7B685B6AD2B21A708A
:101AA0007B685B6A5A1C7B685A627B681B8D002BC3
:101AB0000CD07B681B8D013B9AB27B681A857B68D2
:101AC0005B8D9BB2013B9AB27B685A857B685B8DCC
:101AD0009BB2002B05D07B685B6C04221A437B68A9
:101AE0005A647B684222002199547B6800225A6321
:101AF0007B685B6C002B13D07B685A6C7B68110091
:101B0000180000F0B9F87B6841229B5CDBB2282BFF
:101B100047D17A697B681100180000F053F840E063
:101B20007B68DB6A264A934216D07B681800FFF771
:101B3000BFFE7B68224ADA627B68412220219954E9
:101B40007B6800221A637B684022002199547B68DD
:101B50001800FFF7DDFC24E07B6841229B5CDBB2D0
:101B6000222B0FD17B684122202199547B680022CF
:101B70001A637B684022002199547B681800FFF7A4
:101B8000AFFC0EE07B684122202199547B68002243
:101B90001A637B684022002199547B681800FFF784
:101BA00097FCC046BD4606B080BDC046018000001F
:101BB0000280000000E800FEFFBFFFFFFF7FFFFF85
:101BC0000000FFFF80B582B000AF786039607B68AD
:101BD000274ADA627B6800221A637B68412220214F
:101BE00099547B684222002199547B6800225A63F1
:101BF0003B689B081A000123134022D07B681B68B6
:101C00005A6A7B685B6AD2B21A707B685B6A5A1C3C
:101C10007B685A627B681B8D002B12D07B681B8D02
:101C2000013B9AB27B681A857B685B8D9BB2013B56
:101C30009AB27B685A857B685B6C04221A437B6886
:101C40005A640C4A7B681100180000F061F97B6847
:101C50001B681022DA617B684022002199547B685E
:101C60001800FFF755FCC046BD4602B080BDC04617
:101C70000000FFFF0380000080B584B000AF7860F3
:101C800039600F203B187A684121525C1A707B68DA
:101C90004222002199547B68624ADA627B68002202
:101CA0005A857B685A6C3B681A437B685A643B18B8
:101CB0001B78282B07D03B181B78292B03D03B1807
:101CC0001B782A2B0CD17B680321180000F020F927
:101CD0007B684122282199547B68534A5A6312E059
:101CE000524A7B681100180000F012F97B6841220B
:101CF0009B5CDBB2602B03D07B684122202199548E
:101D00007B6800225A637B681B6BBB607B689B6BA4
:101D1000002B3BD0BB68112B02D0BB68212B35D1E7
:101D20007B681B681A688023DB011A408023DB0173
:101D30009A4207D17B681B681A687B681B683C491C
:101D40000A401A607B689B6B1800FFF702F90300DA
:101D5000012B16D07B689B6B364A9A637B684022C6
:101D6000002199547B689B6B1800FFF7ABF8031EAA
:101D700051D07B689B6B9A6B7B689B6B180090477C
:101D800049E07B68180000F059F844E07B68DB6BA1
:101D9000002B3BD0BB68122B02D0BB68222B35D165
:101DA0007B681B681A6880231B021A4080231B0271
:101DB0009A4207D17B681B681A687B681B681E49BA
:101DC0000A401A607B68DB6B1800FFF7C2F803005B
:101DD000012B16D07B68DB6B164A9A637B68402226
:101DE000002199547B68DB6B1800FFF76BF8031E2A
:101DF00013D07B68DB6B9A6B7B68DB6B18009047BA
:101E00000BE07B68180000F019F806E07B6818000A
:101E100000F014F802E0C04600E0C046C046BD46EF
:101E200004B080BD0000FFFF4115000803800000E2
:101E3000FFBFFFFFD31E0008FF7FFFFF80B582B00A
:101E400000AF78607B6841229B5CDBB2602B0FD1D6
:101E50007B684122202199547B6800221A637B68A9
:101E60004022002199547B681800FFF761FB0AE0CB
:101E70007B6800221A637B684022002199547B68AA
:101E80001800FFF74DFBC046BD4602B080BD80B5CF
:101E900082B000AF78607B681B689B6902221340A8
:101EA000022B03D17B681B6800229A627B681B6847
:101EB0009B6901221340012B07D07B681B689A693C
:101EC0007B681B6801210A439A61C046BD4602B087
:101ED00080BD80B584B000AF78607B689B6AFB6092
:101EE000FB689B6B002B03D0FB689B6B00229A6303
:101EF000FB68DB6B002B03D0FB68DB6B00229A6373
:101F0000FB681800FFF79AFFC046BD4604B080BDCD
:101F100080B584B000AF78600A00BB1C1A80002333
:101F2000FB60BB1C1B880122134010D0FB684222BF
:101F30001343FB607B6841229B5CDBB21A002823C1
:101F40001340282B03D0FB68B0221343FB60BB1C5B
:101F50001B880222134010D0FB6844221343FB600D
:101F60007B6841229B5CDBB21A0028231340282B9C
:101F700003D0FB68B0221343FB60BB1C00229B5EB6
:101F8000002B03DAFB68B8221343FB60BB1C1B88E1
:101F9000102B03D1FB6890221343FB60BB1C1B88F2
:101FA000202B03D1FB6820221343FB60BB1C1B8842
:101FB000402B03D1FB6840221343FB607B681B6806
:101FC0001A68FB68D9437B681B680A401A60C046E0
:101FD000BD4604B080BD000080B582B000AF78601F
:101FE00039607B6841229B5CDBB2202B38D17B6857
:101FF00040229B5C012B01D1022332E07B6840220E
:10200000012199547B684122242199547B681B68E3
:102010001A687B681B6801218A431A607B681B6809
:102020001A687B681B6811490A401A607B681B6844
:1020300019687B681B683A680A431A607B681B68EA
:102040001A687B681B6801210A431A607B68412279
:10205000202199547B68402200219954002300E0FC
:1020600002231800BD4602B080BDC046FFEFFFFF4F
:1020700080B584B000AF786039607B6841229B5C9A
:10208000DBB2202B39D17B6840229B5C012B01D134
:10209000022333E07B684022012199547B6841226E
:1020A000242199547B681B681A687B681B6801218E
:1020B0008A431A607B681B681B68FB60FB68114AD7
:1020C0001340FB603B681B02FA681343FB607B68AC
:1020D0001B68FA681A607B681B681A687B681B6853
:1020E00001210A431A607B684122202199547B68B0
:1020F000402200219954002300E002231800BD462D
:1021000004B080BDFFF0FFFFB0B58AB000AF7860CB
:102110007B68002B02D1012300F06CFBC84BDB680D
:102120000C221340FB61C64BDA6880235B0213402C
:10213000BB617B681B680122134000D17DE0FB6915
:10214000082B07D0FB690C2B12D1BA6980235B02E4
:102150009A420DD1BA4B1A6880239B02134000D1DA
:102160006AE07B685B68002B66D1012300F042FBCC
:102170007B685A6880235B029A4207D1B04B1A6889
:10218000AF4B802149020A431A6027E07B685A68F6
:10219000A023DB029A420ED1A94B1A68A84B8021DA
:1021A000C9020A431A60A64B1A68A54B802149024E
:1021B0000A431A6012E0A24B1A68A14BA1490A40D7
:1021C0001A609F4B1A6880235B021340FB60FB6818
:1021D0009B4B1A689A4B9C490A401A607B685B6863
:1021E000002B14D0FEF762FD03007B6108E0FEF7D0
:1021F0005DFD02007B69D31A642B01D90323F9E248
:102200008F4B1A6880239B021340F0D015E0FEF735
:102210004DFD03007B6108E0FEF748FD02007B698D
:10222000D31A642B01D90323E4E2854B1A68802377
:102230009B021340F0D100E0C0467B681B6802227D
:10224000134000D199E07B68DB687B627B6A2022C7
:10225000134009D07A4B1A68794B20210A431A603F
:102260007B6A202293437B62FB69042B05D0FB69C8
:102270000C2B3ED1BB69002B3BD1714B1B68042258
:10228000134004D07B6A002B01D10123B2E26C4BD6
:102290005B686E4A134019007B681B691A02684B21
:1022A0000A435A60664B1B68092293431900644B2A
:1022B0007A6A0A431A6000F0EBFB0100604BDB68AE
:1022C0001B090F221340624AD35C0A00DA40614BBB
:1022D0001A60614B1B6813257C191800FEF7A0FCDF
:1022E000030023707B191B78002B46D07B191B78C9
:1022F00080E27B6A002B27D0514B1B680922934355
:1023000019004F4B7A6A0A431A60FEF7CFFC0300AC
:102310007B6108E0FEF7CAFC02007B69D31A022B3E
:1023200001D9032366E2464B1B6804221340F1D017
:10233000434B5B68454A134019007B681B691A02CE
:102340003F4B0A435A6018E03D4B1A683C4B012151
:102350008A431A60FEF7AAFC03007B6108E0FEF7DF
:10236000A5FC02007B69D31A022B01D9032341E2A9
:10237000334B1B6804221340F1D17B681B68102289
:10238000134000D1A1E0FB69002B40D12C4B1A680F
:1023900080239B00134005D07B689B69002B01D1F3
:1023A000012327E2264B5B682C4A134019007B6807
:1023B0001A6A234B0A435A60214B5B681B02190AB5
:1023C0007B68DB691A061E4B0A435A607B681B6AEE
:1023D0005B0B0133802212029A40194BDB681B0908
:1023E0000F210B401A49CB5CDA401A4B1A601A4B8A
:1023F0001B6813257C191800FEF712FC03002370DC
:102400007B191B78002B60D07B191B78F2E17B686D
:102410009B69002B3FD00A4B1A68094B8021490069
:102420000A431A60FEF742FC03007B6118E0FEF7E6
:102430003DFC02007B69D31A022B11D90323D9E199
:1024400000100240FFFFFEFFFFFFFBFFFFE0FFFF6A
:10245000AC3A00080000002004000020FF1FFFFF2E
:10246000C94B1A6880239B001340E0D0C64B5B68C1
:10247000C64A134019007B681A6AC34B0A435A6064
:10248000C14B5B681B02190A7B68DB691A06BE4BED
:102490000A435A6019E0BC4B1A68BB4BBC490A405E
:1024A0001A60FEF703FC03007B6108E0FEF7FEFB09
:1024B00002007B69D31A022B01D903239AE1B24BA4
:1024C0001A6880239B001340F0D17B681B680822A8
:1024D000134036D07B685B69002B19D0AA4B1A6D6C
:1024E000A94B01210A431A65FEF7E0FB03007B615B
:1024F00008E0FEF7DBFB02007B69D31A022B01D94F
:10250000032377E1A04B1B6D02221340F1D018E0AA
:102510009D4B1A6D9C4B01218A431A65FEF7C6FB41
:1025200003007B6108E0FEF7C1FB02007B69D31A60
:10253000022B01D903235DE1934B1B6D0222134053
:10254000F1D17B681B680422134000D1AEE0232048
:102550003B1800221A708C4B9A6B80235B0513404A
:1025600009D1894B9A6B884B802149050A439A63AC
:102570003B1801221A70874B1A6880235B001340B6
:102580001AD1844B1A68834B802149000A431A6090
:10259000FEF78CFB03007B6108E0FEF787FB02007F
:1025A0007B69D31A642B01D9032323E1794B1A6881
:1025B00080235B001340F0D07B689A6880235B0027
:1025C0009A4207D1704B1A6D6F4B802149000A4324
:1025D0001A6531E07B689B68002B0CD16A4B1A6D41
:1025E000694B6B490A401A65674B1A6D664B6A491D
:1025F0000A401A6520E07B689A68A023DB009A42B3
:102600000ED1614B1A6D604B8021C9000A431A65D7
:102610005D4B1A6D5C4B802149000A431A650BE043
:10262000594B1A6D584B5A490A401A65564B1A6D48
:10263000554B59490A401A657B689B68002B15D099
:10264000FEF734FB03007B6109E0FEF72FFB02007D
:102650007B69D31A514A934201D90323CAE04A4BFA
:102660001A6D80239B001340EFD014E0FEF71EFB91
:1026700003007B6109E0FEF719FB02007B69D31AB6
:10268000464A934201D90323B4E03F4B1A6D80239D
:102690009B001340EFD12323FB181B78012B05D19E
:1026A000394B9A6B384B3E490A409A637B685B6AA8
:1026B000002B00D19DE0FB690C2B00D176E07B68FC
:1026C0005B6A022B45D1304B1A682F4B35490A40C3
:1026D0001A60FEF7EBFA03007B6108E0FEF7E6FA0A
:1026E00002007B69D31A022B01D9032382E0264B17
:1026F0001A6880239B041340F0D1234BDB682A4ADD
:10270000134019007B689A6A7B68DB6A1A437B680E
:102710001B6B1A431C4B0A43DA601B4B1A681A4B9B
:10272000802149040A431A60FEF7C0FA03007B6166
:1027300008E0FEF7BBFA02007B69D31A022B01D92D
:10274000032357E0104B1A6880239B041340F0D0FA
:102750004FE00D4B1A680C4B12490A401A60FEF705
:10276000A5FA03007B6108E0FEF7A0FA02007B698E
:10277000D31A022B01D903233CE0034B1A688023B0
:102780009B041340F0D134E000100240FF1FFFFF14
:10279000FFFEFFFF00700040FFFBFFFF88130000FB
:1027A000FFFFFFEFFFFFFFFEFFFF02FF7B685B6A9B
:1027B000012B01D101231DE0104BDB68BB61BA691D
:1027C00080235B021A407B689B6A9A420FD1BA69E8
:1027D000F0239B031A407B68DB6A9A4207D1BA69EF
:1027E000C0231B041A407B681B6B9A4201D0012353
:1027F00000E000231800BD460AB0B0BD0010024042
:10280000B0B584B000AF786039607B68002B01D12F
:10281000012328E1964B1B68012213403A689A4233
:102820001ED9934B1B68012293431900904B3A68C1
:102830000A431A60FEF73AFA0300FB6009E0FEF76C
:1028400035FA0200FB68D31A8A4A934201D903235E
:1028500009E1874B1B68012213403A689A42EED186
:102860007B681B680222134009D0834BDB68F0228F
:10287000934319007B689A687F4B0A43DA607B6850
:102880001B680122134000D189E07B685B68022B42
:1028900007D1794B1A6880239B02134020D1012372
:1028A000E1E07B685B68032B07D1734B1A688023D8
:1028B0009B04134014D10123D5E07B685B68012B96
:1028C00006D16D4B1B680422134009D10123CAE0D5
:1028D000694B1A6880239B00134001D10123C2E099
:1028E000654BDB680322934319007B685A68624B8F
:1028F0000A43DA60FEF7DAF90300FB607B685B6885
:10290000022B11D109E0FEF7D1F90200FB68D31ABE
:10291000584A934201D90323A5E0574BDB680C22A8
:102920001340082BEFD13AE07B685B68032B11D191
:1029300009E0FEF7BBF90200FB68D31A4D4A934247
:1029400001D903238FE04C4BDB680C2213400C2B86
:10295000EFD124E07B685B68012B1BD109E0FEF717
:10296000A5F90200FB68D31A424A934201D9032316
:1029700079E0414BDB680C221340042BEFD10EE0D1
:10298000FEF794F90200FB68D31A3A4A934201D940
:10299000032368E0384BDB680C221340F0D1344B42
:1029A0001B68012213403A689A421ED2304B1B68C2
:1029B0000122934319002E4B3A680A431A60FEF72E
:1029C00075F90300FB6009E0FEF770F90200FB688F
:1029D000D31A284A934201D9032344E0244B1B68AD
:1029E000012213403A689A42EED17B681B680422A8
:1029F000134009D0204BDB68204A134019007B6844
:102A0000DA681D4B0A43DA607B681B6808221340B2
:102A10000AD0194BDB681A4A134019007B681B69FE
:102A2000DA00154B0A43DA6000F032F80100124B6D
:102A3000DB681B090F221340124AD35C0A00DA40FC
:102A4000114B1A60114B1B680B257C191800FEF7FF
:102A5000E7F8030023707B191B78002B02D07B1949
:102A60001B7800E000231800BD4604B0B0BDC0468E
:102A7000002002408813000000100240FFF8FFFF12
:102A8000FFC7FFFFAC3A0008000000200400002050
:102A9000B0B58EB000AF4C4BDB68FB62FA6A0C231A
:102AA00013400C2B14D000D97BE0042B02D0082B50
:102AB0000BD076E0444B1B681022134002D0434BEE
:102AC0003B637CE0424B3B6379E0424B3B6376E007
:102AD000FB6A9A0C0F231A403F4B9B5CBB62FB6A5C
:102AE0009A0D0323134001337B62374BDA6880234E
:102AF0005B0213401AD0BB6ABB610023FB61354AFD
:102B00000023B869F969FDF7ABFB02000B00100068
:102B100019007B6A3B6100237B613A697B69FDF7A1
:102B20007FFB02000B0013007B6337E0264B1B6822
:102B3000102213401AD0BB6ABB600023FB60234AFB
:102B40000023B868F968FDF78BFB02000B0010004A
:102B500019007B6A3B6000237B603A687B68FDF765
:102B60005FFB02000B0013007B6317E0BB6A1800D9
:102B700000231900164A0023FDF772FB02000B0028
:102B8000100019007B6A1C0000231D0022002B008E
:102B9000FDF746FB02000B0013007B637B6B3B637E
:102BA0000DE0094B5B685B0B072213403B623B6AFD
:102BB0000133802212029A4013003B63C0463B6BF4
:102BC0001800BD460EB0B0BD0010024000093D0027
:102BD0000024F40000127A00BC3A000880B586B0E8
:102BE00000AF786017203B1800221A707B681B68C2
:102BF0002022134000D1C2E0814B9A6B80235B05F9
:102C0000134009D17E4B9A6B7D4B802149050A43C5
:102C10009A633B1801221A707A4B1A6880235B0072
:102C200013401AD1774B1A68764B802149000A432A
:102C30001A60FEF73BF803003B6108E0FEF736F848
:102C400002003B69D31A642B01D90323D4E06D4BF6
:102C50001A6880235B001340F0D0694B1A68C023C8
:102C60009B031340FB607B685A68C0239B0313409F
:102C7000FA689A4213D07B685A68C0239B021A40B4
:102C8000C0239B029A420AD15D4B1A6880239B02A3
:102C90001A4080239B029A4201D10123ACE0584B99
:102CA0001A6DC0239B021340FB60FB68002B3BD0D6
:102CB0007B685A68C0239B021340FA689A4233D05B
:102CC0007B681B68202213402ED04D4B1B6D4E4A53
:102CD0001340FB604A4B1A6D494B802109030A439C
:102CE0001A65474B1A6D464B48490A401A65444BD2
:102CF000FA681A65FA6880235B00134014D0FDF768
:102D0000D5FF03003B6109E0FDF7D0FF02003B69FE
:102D1000D31A3F4A934201D903236DE0384B1A6D11
:102D200080239B001340EFD07B685A68C0239B022E
:102D30001A40C0239B029A420CD1314B1B68354A82
:102D4000134019007B685A68C0239B031A402C4B20
:102D50000A431A602A4B196D7B685A68C0239B028C
:102D60001A40274B0A431A651723FB181B78012BBF
:102D700005D1234B9A6B224B27490A409A637B6803
:102D80001B680222134009D01D4BDB6C0C229343BD
:102D900019007B689A681A4B0A43DA647B681B68DF
:102DA0000422134009D0164BDB6C1C4A1340190057
:102DB0007B68DA68124B0A43DA647B681B68082276
:102DC000134009D00E4BDB6C154A134019007B6889
:102DD0001A690B4B0A43DA647B681B688022134034
:102DE00009D0074BDB6C0F4A134019007B685A6906
:102DF000034B0A43DA6400231800BD4606B080BDC9
:102E00000010024000700040FFFFFCFFFFFFF7FFD3
:102E100088130000FFFFCFFFFFFFFFEFFFF3FFFF6F
:102E2000FFCFFFFFFFFFF3FF80B582B000AF7860F8
:102E30007B68002B01D1012332E07B6839229B5C47
:102E4000DBB2002B07D17B683822002199547B68C4
:102E50001800FDF7C3FD7B683922022199547B6875
:102E60001A687B6804331900100000F08BFB7B6844
:102E70003E22012199547B683A22012199547B68B2
:102E80003B22012199547B683C22012199547B68A3
:102E90003D22012199547B68392201219954002354
:102EA0001800BD4602B080BD80B582B000AF78602A
:102EB0007B68002B01D1012332E07B6839229B5CC7
:102EC000DBB2002B07D17B683822002199547B6844
:102ED0001800FDF765FD7B683922022199547B6853
:102EE0001A687B6804331900100000F04BFB7B6804
:102EF0003E22012199547B683A22012199547B6832
:102F00003B22012199547B683C22012199547B6822
:102F10003D22012199547B683922012199540023D3
:102F20001800BD4602B080BD80B584B000AF7860A7
:102F300039603B68002B08D17B683A229B5CDBB28E
:102F4000013B5A1E9341DBB21FE03B68042B08D1C2
:102F50007B683B229B5CDBB2013B5A1E9341DBB298
:102F600013E03B68082B08D17B683C229B5CDBB2FA
:102F7000013B5A1E9341DBB207E07B683D229B5C1C
:102F8000DBB2013B5A1E9341DBB2002B01D001237F
:102F900048E03B68002B04D17B683A220221995417
:102FA00013E03B68042B04D17B683B220221995437
:102FB0000BE03B68082B04D17B683C22022199542A
:102FC00003E07B683D22022199547B681B683968C5
:102FD0000122180000F0BEFC7B681A688023DB0524
:102FE0009A4204D07B681B68104A934211D17B68D7
:102FF0001B689B6807221340FB60FB68062B10D000
:103000007B681B681A687B681B6801210A431A6089
:1030100007E07B681B681A687B681B6801210A430C
:103020001A6000231800BD4604B080BD00080140AE
:1030300080B582B000AF78607B681B681B69022294
:103040001340022B24D17B681B68DB6802221340EB
:10305000022B1DD17B681B68032252421A617B68D8
:1030600001221A767B681B689B690322134004D0F7
:103070007B68180000F06EFA07E07B68180000F02B
:1030800061FA7B68180000F06DFA7B6800221A76FE
:103090007B681B681B6904221340042B25D17B68C5
:1030A0001B68DB6804221340042B1ED17B681B685D
:1030B000052252421A617B6802221A767B681B68DD
:1030C0009A69C0239B00134004D07B68180000F06D
:1030D00041FA07E07B68180000F034FA7B681800BA
:1030E00000F040FA7B6800221A767B681B681B6937
:1030F00008221340082B24D17B681B68DB68082258
:103100001340082B1DD17B681B68092252421A61AB
:103110007B6804221A767B681B68DB6903221340F4
:1031200004D07B68180000F015FA07E07B681800EF
:1031300000F008FA7B68180000F014FA7B6800229F
:103140001A767B681B681B6910221340102B25D14F
:103150007B681B68DB6810221340102B1ED17B6834
:103160001B68112252421A617B6808221A767B681A
:103170001B68DA69C0239B00134004D07B681800E9
:1031800000F0E8F907E07B68180000F0DBF97B68E5
:10319000180000F0E7F97B6800221A767B681B684C
:1031A0001B6901221340012B0FD17B681B68DB6870
:1031B00001221340012B08D17B681B680222524276
:1031C0001A617B68180000F0B5F97B681B681B6901
:1031D00040221340402B0FD17B681B68DB684022E4
:1031E0001340402B08D17B681B68412252421A6170
:1031F0007B68180000F0BEF9C046BD4602B080BD35
:1032000080B586B000AFF860B9607A601723FB180C
:1032100000221A70FB6838229B5C012B01D102232B
:10322000ADE0FB683822012199547B680C2B00D15A
:1032300076E07B680C2B00D995E07B68082B4ED09C
:103240007B68082B00D98EE07B68002B03D07B685D
:10325000042B21D087E0FB681B68BA6811001800B6
:1032600000F0DAF9FB681B689A69FB681B680821A3
:103270000A439A61FB681B689A69FB681B68042112
:103280008A439A61FB681B689969BB68DA68FB68C6
:103290001B680A439A616BE0FB681B68BA681100FF
:1032A000180000F0F5F9FB681B689A69FB681B6859
:1032B000802109010A439A61FB681B689A69FB68CF
:1032C0001B6831490A409A61FB681B689969BB68B1
:1032D000DB681A02FB681B680A439A6148E0FB68D6
:1032E0001B68BA681100180000F014FAFB681B682C
:1032F000DA69FB681B6808210A43DA61FB681B680E
:10330000DA69FB681B6804218A43DA61FB681B6881
:10331000D969BB68DA68FB681B680A43DA6127E091
:10332000FB681B68BA681100180000F033FAFB68EC
:103330001B68DA69FB681B68802109010A43DA61AE
:10334000FB681B68DA69FB681B680F490A40DA6191
:10335000FB681B68D969BB68DB681A02FB681B68DD
:103360000A43DA6104E01723FB1801221A70C046F1
:10337000FB683822002199541723FB181B7818008A
:10338000BD4606B080BDC046FFFBFFFF80B584B0E0
:1033900000AF786039600F23FB1800221A707B6839
:1033A00038229B5C012B01D10223BCE07B683822D0
:1033B000012199547B683922022199547B681B684A
:1033C0009B68BB60BB6877229343BB60BB68584A6D
:1033D0001340BB607B681B68BA689A603B681B68D7
:1033E00080229201934240D080229201934200D9E0
:1033F00088E080225201934200D188E0802252016D
:10340000934200D97EE0702B18D000D97AE0602B6F
:103410004FD000D976E0502B3BD000D972E0402B42
:1034200057D000D96EE0302B63D06BD8202B60D002
:1034300068D8002B5DD0102B5BD063E07B681868E8
:103440003B6899683B685A683B68DB6800F062FA41
:103450007B681B689B68BB60BB6877221343BB60BB
:103460007B681B68BA689A6052E07B6818683B68A2
:1034700099683B685A683B68DB6800F04BFA7B68E8
:103480001B689A687B681B688021C9010A439A609F
:103490003EE07B6818683B6859683B68DB681A0047
:1034A00000F0BEF97B681B685021180000F018FA84
:1034B0002EE07B6818683B6859683B68DB681A0037
:1034C00000F0DCF97B681B686021180000F008FA46
:1034D0001EE07B6818683B6859683B68DB681A0027
:1034E00000F09EF97B681B684021180000F0F8F995
:1034F0000EE07B681A683B681B681900100000F03A
:10350000EFF905E00F23FB1801221A7000E0C04616
:103510007B683922012199547B6838220021995413
:103520000F23FB181B781800BD4604B080BDC046B1
:10353000FF00FFFF80B582B000AF7860C046BD4697
:1035400002B080BD80B582B000AF7860C046BD4695
:1035500002B080BD80B582B000AF7860C046BD4685
:1035600002B080BD80B582B000AF7860C046BD4675
:1035700002B080BD80B582B000AF7860C046BD4665
:1035800002B080BD80B584B000AF786039607B68E0
:103590001B68FB607A688023DB059A4203D07B6856
:1035A0001B4A934208D1FB6870229343FB603B683F
:1035B0005B68FA681343FB607A688023DB059A42F4
:1035C00003D07B68124A934208D1FB68114A13402A
:1035D000FB603B68DB68FA681343FB60FB68802292
:1035E00093431A003B681B691343FB607B68FA68CE
:1035F0001A603B689A687B68DA623B681A687B6885
:103600009A627B6801225A61C046BD4604B080BD03
:1036100000080140FFFCFFFF80B586B000AF786076
:1036200039607B681B6A012293431A007B681A6227
:103630007B681B6A7B617B685B683B617B689B691D
:10364000FB60FB6870229343FB60FB68032293439B
:10365000FB603B681B68FA681343FB607B690222CE
:1036600093437B613B689B687A6913437B617B680A
:103670003A695A607B68FA689A613B685A687B6865
:103680005A637B687A691A62C046BD4606B080BD3F
:1036900080B586B000AF786039607B681B6A102205
:1036A00093431A007B681A627B681B6A7B617B68A4
:1036B0005B683B617B689B69FB60FB68134A134056
:1036C000FB60FB68124A1340FB603B681B681B02EF
:1036D000FA681343FB607B69202293437B613B685C
:1036E0009B681B017A6913437B617B683A695A6066
:1036F0007B68FA689A613B685A687B689A637B6862
:103700007A691A62C046BD4606B080BDFF8FFFFFD2
:10371000FFFCFFFF80B586B000AF786039607B6842
:103720001B6A1A4A1A407B681A627B681B6A7B61B3
:103730007B685B683B617B68DB69FB60FB687022D0
:103740009343FB60FB6803229343FB603B681B6869
:10375000FA681343FB607B690D4A13407B613B6849
:103760009B681B027A6913437B617B683A695A60E4
:103770007B68FA68DA613B685A687B68DA637B6861
:103780007A691A62C046BD4606B080BDFFFEFFFFE3
:10379000FFFDFFFF80B586B000AF786039607B68C1
:1037A0001B6A1B4A1A407B681A627B681B6A7B6132
:1037B0007B685B683B617B68DB69FB60FB68154A83
:1037C0001340FB60FB68144A1340FB603B681B68B6
:1037D0001B02FA681343FB607B69104A13407B614C
:1037E0003B689B681B037A6913437B617B683A697A
:1037F0005A607B68FA68DA613B685A687B681A64C9
:103800007B687A691A62C046BD4606B080BDC04674
:10381000FFEFFFFFFF8FFFFFFFFCFFFFFFDFFFFF5B
:1038200080B586B000AFF860B9607A60FB681B6A4B
:103830007B61FB681B6A012293431A00FB681A62D2
:10384000FB689B693B613B69F02293433B617B686A
:103850001B013A6913433B617B690A2293437B61F5
:103860007A69BB6813437B61FB683A699A61FB68BC
:103870007A691A62C046BD4606B080BD80B586B082
:1038800000AFF860B9607A60FB681B6A102293434E
:103890001A00FB681A62FB689B697B61FB681B6A04
:1038A0003B617B690D4A13407B617B681B037A692E
:1038B00013437B613B69A02293433B61BB681B01BF
:1038C0003A6913433B61FB687A699A61FB683A691C
:1038D0001A62C046BD4606B080BDC046FF0FFFFF5E
:1038E00080B584B000AF786039607B689B68FB600E
:1038F000FB6870229343FB603A68FB68134307221E
:103900001343FB607B68FA689A60C046BD4604B00A
:1039100080BD000080B586B000AFF860B9607A6005
:103920003B60FB689B687B617B69094A13407B6154
:103930003B681A027B681A43BB6813437A691343D6
:103940007B61FB687A699A60C046BD4606B080BD5F
:10395000FF00FFFF80B586B000AFF860B9607A6005
:10396000BB681F22134001229A4013007B61FB6851
:103970001B6A7A69D2431A40FB681A62FB681A6AAA
:10398000BB681F210B40796899400B001A43FB6804
:103990001A62C046BD4606B080BD000080B584B046
:1039A00000AF786039607B6838229B5C012B01D1C5
:1039B00002233DE07B683822012199547B6839223B
:1039C000022199547B681B685B68FB607B681B68FD
:1039D0009B68BB60FB6870229343FB603B681B687D
:1039E000FA681343FB607B681B68FA685A607B685F
:1039F0001A688023DB059A4204D07B681B680E4A54
:103A000093420CD1BB6880229343BB603B685B68E8
:103A1000BA681343BB607B681B68BA689A607B68AE
:103A20003922012199547B683822002199540023BE
:103A30001800BD4604B080BD0008014070B50026E6
:103A40000C4D0D4C641BA410A64209D1002600F0B9
:103A500021F80A4D0A4C641BA410A64205D170BD82
:103A6000B300EB5898470136EEE7B300EB589847A0
:103A70000136F2E7D03A0008D03A0008D03A000800
:103A8000D43A000803008218934200D1704719709D
:103A90000133F9E7F8B5C046F8BC08BC9E4670474C
:0C3AA000F8B5C046F8BC08BC9E46704754
:103AAC0000000000000000000102030406070809E2
:0C3ABC00030406080C1018203000000065
:083AC800E8C7FF7F01000000C8
:043AD000E900000801
:043AD400C100000825
:0C3AD800000020000400000001000000BD
:0400000508000B5D87
:00000001FF
